:100000000428FF3FFF3FFF3F80308B000630031383
:100010008312C6000630C7000530C8000430C9008E
:100020000330CA000630CB00CC010130CD000230D5
:10003000CE0032210C30D2007224831687010130A9
:100040008312C6000130C7004330BC006F30BD00D2
:100050006E30BE007330BF006930C0006730C10031
:100060006E30C2006530C3003A30C400C5013C3078
:10007000C8008A1500208A110230C6000130C7006E
:100080005330BC006530BD006E30BE007330BF0021
:100090002030C0002030C1002030C2002030C3001A
:1000A0003A30C400C5013C30C8008A1500208A11CE
:1000B00012109210121492147C30831692008A153A
:1000C0001A218A1112109210121492147C30831685
:1000D00092008A1520218A11C6015D26C6011326C9
:1000E0008A150B218A114B27C6018A1541208A11D6
:1000F0007008AB007108AC0080307106F2008030EF
:10010000023A7202031D8628003070020318B528D7
:100110000230F400F5012B08F0002C08F100B7259F
:100120007008FF3CAD007108031C013F003CAE00AD
:100130008A15FB208A118A150B218A112D08C60009
:10014000A7262D08F0002E08F1006430F400F50118
:10015000F126FF30F400F501B7257008AD007108F5
:10016000AE000130AF00B001DF288A15F3208A11FC
:100170004B2700302B02F0000230031C013F2C0201
:10018000F1000230F400F501B7257008AD007108E8
:10019000AE007008C60013262D08F0002E08F100EE
:1001A0006430F400F501F126FF30F400F501B725C5
:1001B0007008AD007108AE000230AF00B0012D082C
:1001C000C6002E08C7000030C71BFF30C800C9009A
:1001D0003130CA007F230130C6000A30C7003130F9
:1001E000C8008A1500208A1100303006031DFA2845
:1001F00001302F06031D12290230C6000A30C70045
:100200002030BC002030BD002030BE003130BF00A7
:100210002030C0002030C100C2013C30C8008A1527
:1002200000208A1100303006031D182902302F06E5
:10023000031D30290230C6000A30C7002030BC0040
:100240002030BD002030BE003230BF002030C00062
:100250002030C100C2013C30C8008A1500208A113C
:10026000742831293A273A273A274708F000013005
:10027000F400700803194029F40D7410FF3F3A2967
:100280007408A5004808F0000130F3007008031955
:100290004D29F30D7310FF3F47297308A600490845
:1002A000F0000130F200700803195A29F20D7210A3
:1002B000FF3F54297208A7004A08F0000130F100FE
:1002C000700803196729F10D7110FF3F612971084A
:1002D000A8004C08F0000130A3007008031974292D
:1002E000A30D2310FF3F6E294D08F0000130AA0036
:1002F000700803197F29AA0D2A10FF3F79294E089B
:10030000F0000130A200700803198A29A20D221002
:10031000FF3F84294608A4004B08A100460884003A
:1003200073087404F0007208F0047108F004F00916
:1003300070088005841726082504F0002708F004BB
:100340002808F004F009700880058413210884004F
:100350002A082304F0002208F004F0097008800540
:1003600084172A082304F0002208F004F00970081A
:10037000800584132408840027080004F00028085E
:100380007004800021088400220880042209F00003
:10039000700880053A27220880042209F0007008BE
:1003A00080053A27220880042209F00070088005A1
:1003B0003A2724088400270880042809F0007008E0
:1003C000800521088400220880042209F0007008BA
:1003D00080053A27220880042209F100710880056F
:1003E000240884002709F00070088005250880048F
:1003F0002108840022088004710880053A27240817
:1004000084002509F0007008800528088004210870
:100410008400220880042209F10071088005240864
:1004200084002809F0007008800521088400220853
:100430008004710880053A27220880042209F00010
:10044000700880052408840028088004210884009E
:1004500022088004700880053A27240884002809AF
:10046000F000700880052108840022088004220919
:10047000F100710880052408840028080004F000B9
:100480002708F0042608F0042508700480002108DD
:10049000840022088004710880053A270130A900F1
:1004A0000800031383127408F8027508031C750F03
:1004B000F9027608031C760FFA027708031C770FFF
:1004C000FB02F30D0730FC00730DF80DF90DFA0D6A
:1004D000FB0D7408731C7A2AF8027508031C750F4B
:1004E000F9027608031C760FFA027708031C770FCF
:1004F000FB02872AF80775080318750FF9077608B5
:100500000318760FFA0777080318770FFB07F30D28
:10051000FC0B642A720DF80DF90DFA0DFB0D740831
:10052000731CA02AF8027508031C750FF9027608DF
:10053000031C760FFA027708031C770FFB02AD2A23
:10054000F80775080318750FF90776080318760F72
:10055000FA0777080318770FFB07F20D0730FC0046
:10056000720DF80DF90DFA0DFB0D7408721CC62AF8
:10057000F8027508031C750FF9027608031C760F44
:10058000FA027708031C770FFB02D32AF8077508D5
:100590000318750FF90776080318760FFA0777081E
:1005A0000318770FFB07F20DFC0BB02A710DF80D45
:1005B000F90DFA0DFB0D7408721CEC2AF80275088F
:1005C000031C750FF9027608031C760FFA027708F0
:1005D000031C770FFB02F92AF80775080318750F3B
:1005E000F90776080318760FFA0777080318770FCC
:1005F000FB07F10D0730FC00710DF80DF90DFA0D38
:10060000FB0D7408711C122BF8027508031C750F82
:10061000F9027608031C760FFA027708031C770F9D
:10062000FB021F2BF80775080318750FF9077608EA
:100630000318760FFA0777080318770FFB07F10DF9
:10064000FC0BFC2A700DF80DF90DFA0DFB0D74086A
:10065000711C382BF8027508031C750FF902760817
:10066000031C760FFA027708031C770FFB02452B59
:10067000F80775080318750FF90776080318760F41
:10068000FA0777080318770FFB07F00D0730FC0017
:10069000700DF80DF90DFA0DFB0D7408701C5E2B32
:1006A000F8027508031C750FF9027608031C760F13
:1006B000FA027708031C770FFB026B2BF80775080B
:1006C0000318750FF90776080318760FFA077708ED
:1006D0000318770FFB07F00DFC0B482B70187E2BCF
:1006E0007408F80775080318750FF90776080318DA
:1006F000760FFA0777080318770FFB070800031334
:1007000083124908803A031D8F2B4808003A031DC5
:100710008F2B4708003A031D8F2B4608003A031D14
:10072000B62B4A0884002D308000840A32308000C5
:10073000840A31308000840A34308000840A3730E3
:100740008000840A34308000840A38308000840AB3
:1007500033308000840A36308000840A34308000D0
:10076000840A38308000840A8001712CCC018030EA
:100770004906F00080307002031DC82B003048028B
:10078000031DC82B00304702031DC82B0030460252
:100790000318E62BFF30CC00F001F101F201F30168
:1007A0004608F0024708031C470FF1024808031CE3
:1007B000480FF2024908031C490FF3027008C600F3
:1007C0007108C7007208C8007308C9000130CB0067
:1007D0004608CD004708CE004808CF004908D000A1
:1007E0000030F0005006031DFF2B70084F06031D5C
:1007F000FF2B70084E06031DFF2B4D08003A03190E
:10080000192C0A30F400F501F601F7014D08F0004B
:100810004E08F1004F08F2005008F3001B25700845
:10082000CD007108CE007208CF007308D000CB0A4B
:10083000F02BCB034A08840020308000840A80001B
:10084000840A8000840A8000840A8000840A800070
:10085000840A8000840A8000840A8000840A800060
:10086000840A30308000840A800184034B08003CF5
:1008700003186C2C0A30F400F501F601F701460864
:10088000F0004708F1004808F2004908F3001B2572
:100890007808F0007908F1007A08F2007B08F3008C
:1008A00030307007800084030A30F400F501F6014F
:1008B000F7014608F0004708F1004808F20049082F
:1008C000F3001B257008C6007108C7007208C80035
:1008D0007308C900CB03362C4C080319712C2D303A
:1008E0008000080003138312210884002209F0000D
:1008F000700880052309F000700880052408840032
:1009000026082504F0002708F0042808F004F00960
:10091000700880050030D21B0130F1007108013AE7
:10092000031D942C250880040030521B0130F10077
:100930007108013A031D9E2C260880040030D21A4B
:100940000130F1007108013A031DA82C270880042A
:100950000030521A0130F1007108013A031DB22C27
:1009600028088004210884002908013A031DBD2CB1
:100970002309F00070088005BF2C2308800422089A
:10098000800453272209F000700880052309F00035
:10099000700880052408840026082504F000270834
:1009A000F0042808F004F009700880050030D2191E
:1009B0000130F1007108013A031DE02C2508800484
:1009C000003052190130F1007108013A031DEA2C80
:1009D000260880040030D2180130F1007108013A75
:1009E000031DF42C2708800401305205F100710822
:1009F000013A031DFD2C28088004210884002908E1
:100A0000013A031D082D2309F000700880050A2D06
:100A1000230880042208800453272209F00070086C
:100A200080052908013A031D172D3A271A2D8A152A
:100A300003218A11080003138312FC01F71BFC0A2F
:100A4000FD01FB01FA01F901F80173087204710458
:100A500070040319AF2D73087706A000A01BFD09D1
:100A6000F71F3D2DF409F509F609F709F40A0319F2
:100A7000F50A0319F60A0319F70AF31F4A2DF009BC
:100A8000F109F209F309F00A0319F10A0319F20A4C
:100A90000319F30A73087704A000A01B6B2D5122E1
:100AA000FC1B882DFD1FAF2DF009F109F209F30998
:100AB000F00A0319F10A0319F20A0319F30AF809F3
:100AC000F909FA09FB09F80A0319F90A0319FA0ADC
:100AD0000319FB0AAF2DF71F822DF31B7C2D730822
:100AE000FB007208FA007108F9007008F800F301C1
:100AF000F201F101F001522DF301F201F101F001D7
:100B0000F00A0034F309F209F109F009FC174F2D3E
:100B1000F80A0319F90A0319FA0A0319FB0A7408F7
:100B20007802031D522D75087902031D522D760897
:100B30007A02031D522D77087B02031D522DFB0103
:100B4000FA01F901F801F00A0319F10A0319F20A8E
:100B50000319F30AF31F522DA0012016FF34A00140
:100B60007C1CB52D8A15DA208A11003F080003137A
:100B70008312FD01F901F8017108700403190034B2
:100B800071087506FA00FA1BFD09FB01F51FCD2D52
:100B9000F409F509F40A0319F50AF11FD42DF00937
:100BA000F109F00A0319F10A71087504FA00FA1B39
:100BB000E92D8A1582208A117B18FE2DFD1F003435
:100BC000F009F109F00A0319F10AF809F909F80A1C
:100BD0000319F90A0034F51FFA2DF11BF62D7108DF
:100BE000F9007008F800F101F001DE2DF101F001CB
:100BF000F00A0034F109F009FB0ADB2DF80A0319A9
:100C0000F90A74087802031DDE2D75087902031DA8
:100C1000DE2DF901F801F00A0319F10AF11FDE2DAA
:100C20000000FF340800031383161208F000F101DE
:100C30007008013FF40000300318013F7107F50010
:100C400083124608F000F1018A15AF208A110630A0
:100C5000F2007008F8007108F90072080319352EC7
:100C6000F90CF80CF913FF3F2E2E7808F0007908E4
:100C7000F100F00DF10D7010F00DF10D7010F00D90
:100C8000F10D7010F00DF10D701030307005F600A0
:100C90007108F7000030F7057808F0007908F100D6
:100CA000F10CF00CF113F10CF00CF11370089B0037
:100CB0000F309D0576089D04080003138316120863
:100CC000F000F1017008013FF40000300318013F0B
:100CD0007107F50083124608F000F1018A15AF2074
:100CE0008A110630F2007008F8007108F9007208E5
:100CF00003197F2EF90CF80CF913FF3F782E7808B2
:100D0000F0007908F100F00DF10D7010F00DF10D0B
:100D10007010F00DF10D7010F00DF10D70103030FD
:100D20007005F6007108F7000030F7057808F0004C
:100D30007908F100F10CF00CF113F10CF00CF11347
:100D4000700895000F309705760897040800031384
:100D500083161208F000F1017008013FF400003022
:100D60000318013F7107F50083124608F000F101F6
:100D70008A15AF208A110630F2007008F800710859
:100D8000F90072080319C92EF90CF80CF913FF3F8A
:100D9000C22E7808F0007908F100F00DF10D701006
:100DA000F00DF10D7010F00DF10D7010F00DF10D52
:100DB000701030307005F6007108F7000030F7054C
:100DC0007808F0007908F100F10CF00CF113F10C47
:100DD000F00CF113700895000F3097057608970412
:100DE000080003138312FB01FA01F9018030F800B7
:100DF000FD01F11F012FF109F009F00A0319F10AB1
:100E0000FD0AF51F092FF509F409F40A0319F50A7B
:100E1000FD0AF10CF00C031C162F7408F907750875
:100E20000318750FFA070318FB0A0310F01F1E2F93
:100E30007408FA070318FB0A7508FB07FB0CFA0C89
:100E4000F90CF80C031C092F7D1C312FFB09FA0942
:100E5000F909F809F80A0319F90A0319FA0A031932
:100E6000FB0A7B08F3007A08F2007908F1007808A1
:100E7000F0000800083003138312FB00FF30FA0073
:100E8000FB0B432F462FFA0B432F402F1E30FA0047
:100E9000FA0B482F080003138316871083121215CC
:100EA0000C309D04080000000800FF3FFF3FFF3F9B
:100EB000FF3FFF3FFF3FFF3FFF3FFF3FFF3FFF3F42
:100EC000FF3FFF3FFF3FFF3FFF3FFF3FFF3FFF3F32
:100ED000FF3FFF3FFF3FFF3FFF3FFF3FFF3FFF3F22
:100EE000FF3FFF3FFF3FFF3FFF3FFF3FFF3FFF3F12
:100EF000FF3FFF3FFF3FFF3FFF3FFF3FFF3FFF3F02
:100F0000FF3FFF3FFF3FFF3FFF3FFF3FFF3FFF3FF1
:100F1000FF3FFF3FFF3FFF3FFF3FFF3FFF3FFF3FE1
:100F2000FF3FFF3FFF3FFF3FFF3FFF3FFF3FFF3FD1
:100F3000FF3FFF3FFF3FFF3FFF3FFF3FFF3FFF3FC1
:100F4000FF3FFF3FFF3FFF3FFF3FFF3FFF3FFF3FB1
:100F5000FF3FFF3FFF3FFF3FFF3FFF3FFF3FFF3FA1
:100F6000FF3FFF3FFF3FFF3FFF3FFF3FFF3FFF3F91
:100F7000FF3FFF3FFF3FFF3FFF3FFF3FFF3FFF3F81
:100F8000FF3FFF3FFF3FFF3FFF3FFF3FFF3FFF3F71
:100F9000FF3FFF3FFF3FFF3FFF3FFF3FFF3FFF3F61
:100FA000FF3FFF3FFF3FFF3FFF3FFF3FFF3FFF3F51
:100FB000FF3FFF3FFF3FFF3FFF3FFF3FFF3FFF3F41
:100FC000FF3FFF3FFF3FFF3FFF3FFF3FFF3FFF3F31
:100FD000FF3FFF3FFF3FFF3FFF3FFF3FFF3FFF3F21
:100FE000FF3FFF3FFF3FFF3FFF3FFF3FFF3FFF3F11
:100FF000FF3FFF3FFF3FFF3FFF3FFF3FFF3FFF3F01
:10100000031383124608013A031D09288030C600E5
:1010100020284608023A031D1028C030C6002028A8
:101020004608033A031D17289430C60020284608B6
:10103000043A031D1E28D430C60020288030C60084
:101040004703F0004608F0077008C6007008D20099
:101050008A1172248A15A901C90149084807840028
:101060000008F2007208003A03193E2849084807B0
:1010700084000008D100E820C90A2D280130A90009
:101080000800031383129F01C0309F044030831671
:101090001F04F00070089F00803070049F008312CE
:1010A0004608F000F00D7010F00D7010F00D70108B
:1010B00070089F041F1413211F151F08F200003031
:1010C00072190130F2007208013A031D692800000C
:1010D0005D281E08F200F3017208F300F2017208A5
:1010E000C7007308C80083161E0872048312C70065
:1010F0007308C8000030C8041F104708F0004808F3
:10110000F100080003138312710DF80DF90D740836
:10111000F8027508031C750FF902F00DF10D0F3080
:10112000FC00710DF80DF90D7408701C9D28F80273
:101130007508031C750FF902A228F8077508031833
:10114000750FF907F00DF10DFC0B91287018AE2802
:101150007408F80775080318750FF90708000313DA
:101160008312FB01FA01F9018030F800F10CF00C58
:10117000031CC3287408F90775080318750FFA07CC
:101180000318FB0A0310F01FCB287408FA07750830
:101190000318750FFB07FB0CFA0CF90CF80C031C79
:1011A000B6287B08F3007A08F2007908F100780885
:1011B000F000080003138312FB09FA09F909F80982
:1011C000F80A0319F90A0319FA0A0319FB0A0800B5
:1011D00003138312A9015108D2008A1172248A15BF
:1011E0000130A9000800031383160715831212119A
:1011F000F030970508000313831687148312121129
:10120000F0309D050800103003138312FA00FA0B2A
:101210000729000008000313831607118312121513
:101220000C3097040800073003138312FA00FA0BFE
:10123000172908000313831295011712971208004B
:10124000031383129B011D129D120800FF3FFF3FF5
:02400E007A3FF7
:00000001FF
